{
  "contractName": "Sample",
  "abi": [
    {
      "constant": true,
      "inputs": [],
      "name": "greet",
      "outputs": [
        {
          "name": "",
          "type": "string"
        }
      ],
      "payable": false,
      "stateMutability": "pure",
      "type": "function"
    }
  ],
  "bytecode": "0x608060405234801561001057600080fd5b50610114806100206000396000f3fe6080604052348015600f57600080fd5b506004361060285760003560e01c8063cfae321714602d575b600080fd5b603360ab565b6040518080602001828103825283818151815260200191508051906020019080838360005b8381101560715780820151818401526020810190506058565b50505050905090810190601f168015609d5780820380516001836020036101000a031916815260200191505b509250505060405180910390f35b60606040518060400160405280600881526020017f412073616d706c6500000000000000000000000000000000000000000000000081525090509056fea165627a7a72305820a7d47fde230b32c9272eaf18e46e3e38f75922b859ecba0d56490e1a9f78a1d10029",
  "source": "pragma solidity ^0.5.0;\n\ncontract Sample {\n  function greet() public pure returns (string memory) {\n    return \"A sample\";\n  }\n}",
  "sourcePath": "/Users/sexydynamite/openzeppelinsdk-upgradeable-contract/contracts/Sample.sol",
  "compiler": {
    "name": "solc",
    "version": "0.5.8+commit.23d335f2.Emscripten.clang"
  },
  "schemaVersion": "3.0.11",
  "updatedAt": "2019-08-06T07:40:27.801Z",
  "devdoc": {
    "methods": {}
  },
  "userdoc": {
    "methods": {}
  }
}